{
  "contractName": "ZamphyPreICO",
  "abi": [
    {
      "constant": true,
      "inputs": [],
      "name": "startDate",
      "outputs": [
        {
          "name": "",
          "type": "uint256"
        }
      ],
      "payable": false,
      "stateMutability": "view",
      "type": "function"
    },
    {
      "constant": true,
      "inputs": [],
      "name": "baseTokenPrice",
      "outputs": [
        {
          "name": "",
          "type": "uint256"
        }
      ],
      "payable": false,
      "stateMutability": "view",
      "type": "function"
    },
    {
      "constant": true,
      "inputs": [],
      "name": "zamphyToken",
      "outputs": [
        {
          "name": "",
          "type": "address"
        }
      ],
      "payable": false,
      "stateMutability": "view",
      "type": "function"
    },
    {
      "constant": true,
      "inputs": [],
      "name": "icoBalance",
      "outputs": [
        {
          "name": "",
          "type": "uint256"
        }
      ],
      "payable": false,
      "stateMutability": "view",
      "type": "function"
    },
    {
      "constant": true,
      "inputs": [],
      "name": "multisig",
      "outputs": [
        {
          "name": "",
          "type": "address"
        }
      ],
      "payable": false,
      "stateMutability": "view",
      "type": "function"
    },
    {
      "constant": true,
      "inputs": [],
      "name": "founder",
      "outputs": [
        {
          "name": "",
          "type": "address"
        }
      ],
      "payable": false,
      "stateMutability": "view",
      "type": "function"
    },
    {
      "constant": true,
      "inputs": [
        {
          "name": "",
          "type": "address"
        }
      ],
      "name": "investments",
      "outputs": [
        {
          "name": "",
          "type": "uint256"
        }
      ],
      "payable": false,
      "stateMutability": "view",
      "type": "function"
    },
    {
      "constant": true,
      "inputs": [],
      "name": "endDate",
      "outputs": [
        {
          "name": "",
          "type": "uint256"
        }
      ],
      "payable": false,
      "stateMutability": "view",
      "type": "function"
    },
    {
      "constant": true,
      "inputs": [],
      "name": "discountedPrice",
      "outputs": [
        {
          "name": "",
          "type": "uint256"
        }
      ],
      "payable": false,
      "stateMutability": "view",
      "type": "function"
    },
    {
      "constant": true,
      "inputs": [],
      "name": "isICOActive",
      "outputs": [
        {
          "name": "",
          "type": "bool"
        }
      ],
      "payable": false,
      "stateMutability": "view",
      "type": "function"
    },
    {
      "payable": true,
      "stateMutability": "payable",
      "type": "fallback"
    },
    {
      "constant": false,
      "inputs": [],
      "name": "fund",
      "outputs": [
        {
          "name": "",
          "type": "uint256"
        }
      ],
      "payable": true,
      "stateMutability": "payable",
      "type": "function"
    },
    {
      "constant": false,
      "inputs": [
        {
          "name": "beneficiary",
          "type": "address"
        },
        {
          "name": "_tokenCount",
          "type": "uint256"
        }
      ],
      "name": "fundBTC",
      "outputs": [
        {
          "name": "",
          "type": "uint256"
        }
      ],
      "payable": false,
      "stateMutability": "nonpayable",
      "type": "function"
    },
    {
      "constant": false,
      "inputs": [
        {
          "name": "_multisig",
          "type": "address"
        }
      ],
      "name": "ZamphyICO",
      "outputs": [],
      "payable": false,
      "stateMutability": "nonpayable",
      "type": "function"
    }
  ],
  "bytecode": "0x606060405260008060006101000a81548173ffffffffffffffffffffffffffffffffffffffff021916908373ffffffffffffffffffffffffffffffffffffffff160217905550635a5fe381600355635a72587f6004556000600555620f42406006556006546007556000600860006101000a81548160ff021916908315150217905550341561008d57600080fd5b610b278061009c6000396000f3006060604052600436106100c5576000357c0100000000000000000000000000000000000000000000000000000000900463ffffffff1680630b97bc86146100d05780631da93873146100f95780631f88bf8a1461012257806328af792c146101775780633ac31e02146101cd5780634783c35b146101f65780634d853ee51461024b57806396b98862146102a0578063b60d4288146102ed578063c24a0f8b1461030b578063c878813414610334578063e7a25d061461035d578063f6933c7d14610396575b6100cd6103c3565b50005b34156100db57600080fd5b6100e36106f8565b6040518082815260200191505060405180910390f35b341561010457600080fd5b61010c6106fe565b6040518082815260200191505060405180910390f35b341561012d57600080fd5b610135610704565b604051808273ffffffffffffffffffffffffffffffffffffffff1673ffffffffffffffffffffffffffffffffffffffff16815260200191505060405180910390f35b341561018257600080fd5b6101b7600480803573ffffffffffffffffffffffffffffffffffffffff16906020019091908035906020019091905050610729565b6040518082815260200191505060405180910390f35b34156101d857600080fd5b6101e06109ed565b6040518082815260200191505060405180910390f35b341561020157600080fd5b6102096109f3565b604051808273ffffffffffffffffffffffffffffffffffffffff1673ffffffffffffffffffffffffffffffffffffffff16815260200191505060405180910390f35b341561025657600080fd5b61025e610a19565b604051808273ffffffffffffffffffffffffffffffffffffffff1673ffffffffffffffffffffffffffffffffffffffff16815260200191505060405180910390f35b34156102ab57600080fd5b6102d7600480803573ffffffffffffffffffffffffffffffffffffffff16906020019091905050610a3f565b6040518082815260200191505060405180910390f35b6102f56103c3565b6040518082815260200191505060405180910390f35b341561031657600080fd5b61031e610a57565b6040518082815260200191505060405180910390f35b341561033f57600080fd5b610347610a5d565b6040518082815260200191505060405180910390f35b341561036857600080fd5b610394600480803573ffffffffffffffffffffffffffffffffffffffff16906020019091905050610a63565b005b34156103a157600080fd5b6103a9610ae8565b604051808215151515815260200191505060405180910390f35b60008060008060035442039050620d9f80811015156103ea576006546007819055506104aa565b6209ab008110151561041357606b60646006540281151561040757fe5b046007819055506104a9565b6205b6808110151561043c57607860646006540281151561043057fe5b046007819055506104a8565b6201c2008110151561046557608e60646006540281151561045957fe5b046007819055506104a7565b61a8c08110151561048d57609660646006540281151561048157fe5b046007819055506104a6565b60aa60646006540281151561049e57fe5b046007819055505b5b5b5b5b60001515600860009054906101000a900460ff16151514156104cb57600080fd5b6006543410156104da57600080fd5b600754348115156104e757fe5b04925060075483029150813411801561053457503373ffffffffffffffffffffffffffffffffffffffff166108fc8334039081150290604051600060405180830381858888f19350505050155b1561053e57600080fd5b8160056000828254019250508190555081600960003373ffffffffffffffffffffffffffffffffffffffff1673ffffffffffffffffffffffffffffffffffffffff16815260200190815260200160002060008282540192505081905550600260009054906101000a900473ffffffffffffffffffffffffffffffffffffffff1673ffffffffffffffffffffffffffffffffffffffff166108fc839081150290604051600060405180830381858888f1935050505015156105fd57600080fd5b6000809054906101000a900473ffffffffffffffffffffffffffffffffffffffff1673ffffffffffffffffffffffffffffffffffffffff1663475a9fa933856000604051602001526040518363ffffffff167c0100000000000000000000000000000000000000000000000000000000028152600401808373ffffffffffffffffffffffffffffffffffffffff1673ffffffffffffffffffffffffffffffffffffffff16815260200182815260200192505050602060405180830381600087803b15156106c957600080fd5b6102c65a03f115156106da57600080fd5b5050506040518051905015156106ef57600080fd5b82935050505090565b60035481565b60065481565b6000809054906101000a900473ffffffffffffffffffffffffffffffffffffffff1681565b600080600060035442039050620d9f808110151561074f5760065460078190555061080f565b6209ab008110151561077857606b60646006540281151561076c57fe5b0460078190555061080e565b6205b680811015156107a157607860646006540281151561079557fe5b0460078190555061080d565b6201c200811015156107ca57608e6064600654028115156107be57fe5b0460078190555061080c565b61a8c0811015156107f25760966064600654028115156107e657fe5b0460078190555061080b565b60aa60646006540281151561080357fe5b046007819055505b5b5b5b5b60001515600860009054906101000a900460ff161515141561083057600080fd5b600160009054906101000a900473ffffffffffffffffffffffffffffffffffffffff1673ffffffffffffffffffffffffffffffffffffffff163373ffffffffffffffffffffffffffffffffffffffff1614151561088c57600080fd5b600754840291508160056000828254019250508190555081600960008773ffffffffffffffffffffffffffffffffffffffff1673ffffffffffffffffffffffffffffffffffffffff168152602001908152602001600020600082825401925050819055506000809054906101000a900473ffffffffffffffffffffffffffffffffffffffff1673ffffffffffffffffffffffffffffffffffffffff1663475a9fa986866000604051602001526040518363ffffffff167c0100000000000000000000000000000000000000000000000000000000028152600401808373ffffffffffffffffffffffffffffffffffffffff1673ffffffffffffffffffffffffffffffffffffffff16815260200182815260200192505050602060405180830381600087803b15156109bc57600080fd5b6102c65a03f115156109cd57600080fd5b5050506040518051905015156109e257600080fd5b839250505092915050565b60055481565b600260009054906101000a900473ffffffffffffffffffffffffffffffffffffffff1681565b600160009054906101000a900473ffffffffffffffffffffffffffffffffffffffff1681565b60096020528060005260406000206000915090505481565b60045481565b60075481565b33600160006101000a81548173ffffffffffffffffffffffffffffffffffffffff021916908373ffffffffffffffffffffffffffffffffffffffff16021790555080600260006101000a81548173ffffffffffffffffffffffffffffffffffffffff021916908373ffffffffffffffffffffffffffffffffffffffff16021790555050565b600860009054906101000a900460ff16815600a165627a7a723058208b3d159bd32af87e95983938d34394ccbec3beb596b0a57970ba43696b28e3130029",
  "source": "pragma solidity ^0.4.18;\n//0x2D8e35D0AaC632011D8432C0fB3A06f0D395f8f7\nimport \"./ZamphyToken.sol\";\n\n/// @title ZamphyICO contract - Takes funds from users and issues tokens.\n\ncontract ZamphyPreICO {\n\n    /*\n     * External contracts\n     */\n    ZamphyToken public zamphyToken = ZamphyToken(0x0);\n\n    /*\n     * Crowdfunding parameters\n     */\n    // uint constant public CROWDFUNDING_PERIOD = 12 days;\n    // Goal threshold, 10000 ETH\n    // uint constant public CROWDSALE_TARGET = 10000 ether;\n\n    /*\n     *  Storage\n     */\n    address public founder;\n    address public multisig;\n    uint public startDate = 1516233601;\n    uint public endDate = 1517443199;\n    uint public icoBalance = 0;\n    uint public baseTokenPrice = 1000000; \n    uint public discountedPrice = baseTokenPrice;\n    bool public isICOActive = false;\n\n    // participant address => value in Wei\n    mapping (address => uint) public investments;\n\n    /*\n     *  Modifiers\n     */\n    modifier onlyFounder() {\n        // Only founder is allowed to do this action.\n        if (msg.sender != founder) {\n            throw;\n        }\n        _;\n    }\n\n    modifier minInvestment() {\n        // User has to send at least the ether value of one token.\n        if (msg.value < baseTokenPrice) {\n            throw;\n        }\n        _;\n    }\n\n    modifier icoActive() {\n        if (isICOActive == false) {\n            throw;\n        }\n        _;\n    }\n\n    modifier applyBonus() {\n        uint icoDuration = now - startDate;\n        if (icoDuration >= 248 hours) {\n            discountedPrice = baseTokenPrice;\n        }\n        else if (icoDuration >= 176 hours) {\n            discountedPrice = (baseTokenPrice * 100) / 107;\n        }\n        else if (icoDuration >= 104 hours) {\n            discountedPrice = (baseTokenPrice * 100) / 120;\n        }\n        else if (icoDuration >= 32 hours) {\n            discountedPrice = (baseTokenPrice * 100) / 142;\n        }\n        else if (icoDuration >= 12 hours) {\n            discountedPrice = (baseTokenPrice * 100) / 150;\n        }\n        else {\n            discountedPrice = (baseTokenPrice * 100) / 170;\n        }\n        _;\n    }\n\n    /// @dev Allows user to create tokens if token creation is still going\n    /// and cap was not reached. Returns token count.\n    function fund()\n        public\n        applyBonus\n        icoActive\n        minInvestment\n        payable\n        returns (uint)\n    {\n        // Token count is rounded down. Sent ETH should be multiples of baseTokenPrice.\n        uint tokenCount = msg.value / discountedPrice;\n        // Ether spent by user.\n        uint investment = tokenCount * discountedPrice;\n        // Send change back to user.\n        if (msg.value > investment && !msg.sender.send(msg.value - investment)) {\n            throw;\n        }\n        // Update fund's and user's balance and total supply of tokens.\n        icoBalance += investment;\n        investments[msg.sender] += investment;\n        // Send funds to founders.\n        if (!multisig.send(investment)) {\n            // Could not send money\n            throw;\n        }\n        if (!zamphyToken.issueTokens(msg.sender, tokenCount)) {\n            // Tokens could not be issued.\n            throw;\n        }\n        return tokenCount;\n    }\n\n    /// @dev Issues tokens for users who made BTC purchases.\n    /// @param beneficiary Address the tokens will be issued to.\n    /// @param _tokenCount Number of tokens to issue.\n    function fundBTC(address beneficiary, uint _tokenCount)\n        external\n        applyBonus\n        icoActive\n        onlyFounder\n        returns (uint)\n    {\n        // Approximate ether spent.\n        uint investment = _tokenCount * discountedPrice;\n        // Update fund's and user's balance and total supply of tokens.\n        icoBalance += investment;\n        investments[beneficiary] += investment;\n        if (!zamphyToken.issueTokens(beneficiary, _tokenCount)) {\n            // Tokens could not be issued.\n            throw;\n        }\n        return _tokenCount;\n    }\n\n    \n    /// @dev Contract constructor function sets founder and multisig addresses.\n    function ZamphyICO(address _multisig) {\n        // Set founder address\n        founder = msg.sender;\n        // Set multisig address\n        multisig = _multisig;\n    }\n\n    /// @dev Fallback function. Calls fund() function to create tokens.\n    function () payable {\n        fund();\n    }\n}",
  "sourcePath": "/var/www/html/zamphy-ico-humaniq/contracts/ZamphyPreICO.sol",
  "compiler": {
    "name": "solc",
    "version": "0.4.19+commit.c4cbbb05.Emscripten.clang"
  },
  "schemaVersion": "1.0.1",
  "updatedAt": "2018-02-26T12:57:33.214Z"
}