{
  "contractName": "ZamphyToken",
  "abi": [
    {
      "constant": true,
      "inputs": [],
      "name": "preICOSupply",
      "outputs": [
        {
          "name": "",
          "type": "uint256"
        }
      ],
      "payable": false,
      "stateMutability": "view",
      "type": "function"
    },
    {
      "constant": true,
      "inputs": [],
      "name": "name",
      "outputs": [
        {
          "name": "",
          "type": "string"
        }
      ],
      "payable": false,
      "stateMutability": "view",
      "type": "function"
    },
    {
      "constant": true,
      "inputs": [],
      "name": "minter",
      "outputs": [
        {
          "name": "",
          "type": "address"
        }
      ],
      "payable": false,
      "stateMutability": "view",
      "type": "function"
    },
    {
      "constant": false,
      "inputs": [
        {
          "name": "_spender",
          "type": "address"
        },
        {
          "name": "_value",
          "type": "uint256"
        }
      ],
      "name": "approve",
      "outputs": [
        {
          "name": "success",
          "type": "bool"
        }
      ],
      "payable": false,
      "stateMutability": "nonpayable",
      "type": "function"
    },
    {
      "constant": true,
      "inputs": [],
      "name": "allocationAddressPreICO",
      "outputs": [
        {
          "name": "",
          "type": "address"
        }
      ],
      "payable": false,
      "stateMutability": "view",
      "type": "function"
    },
    {
      "constant": true,
      "inputs": [],
      "name": "ICOSupply",
      "outputs": [
        {
          "name": "",
          "type": "uint256"
        }
      ],
      "payable": false,
      "stateMutability": "view",
      "type": "function"
    },
    {
      "constant": true,
      "inputs": [],
      "name": "totalSupply",
      "outputs": [
        {
          "name": "",
          "type": "uint256"
        }
      ],
      "payable": false,
      "stateMutability": "view",
      "type": "function"
    },
    {
      "constant": false,
      "inputs": [
        {
          "name": "_from",
          "type": "address"
        },
        {
          "name": "_to",
          "type": "address"
        },
        {
          "name": "_value",
          "type": "uint256"
        }
      ],
      "name": "transferFrom",
      "outputs": [
        {
          "name": "success",
          "type": "bool"
        }
      ],
      "payable": false,
      "stateMutability": "nonpayable",
      "type": "function"
    },
    {
      "constant": true,
      "inputs": [],
      "name": "maxTotalSupply",
      "outputs": [
        {
          "name": "",
          "type": "uint256"
        }
      ],
      "payable": false,
      "stateMutability": "view",
      "type": "function"
    },
    {
      "constant": true,
      "inputs": [],
      "name": "decimals",
      "outputs": [
        {
          "name": "",
          "type": "uint8"
        }
      ],
      "payable": false,
      "stateMutability": "view",
      "type": "function"
    },
    {
      "constant": true,
      "inputs": [],
      "name": "allocationAddressMinigSupply",
      "outputs": [
        {
          "name": "",
          "type": "address"
        }
      ],
      "payable": false,
      "stateMutability": "view",
      "type": "function"
    },
    {
      "constant": true,
      "inputs": [],
      "name": "multisig",
      "outputs": [
        {
          "name": "",
          "type": "address"
        }
      ],
      "payable": false,
      "stateMutability": "view",
      "type": "function"
    },
    {
      "constant": true,
      "inputs": [],
      "name": "founder",
      "outputs": [
        {
          "name": "",
          "type": "address"
        }
      ],
      "payable": false,
      "stateMutability": "view",
      "type": "function"
    },
    {
      "constant": true,
      "inputs": [],
      "name": "reservedForPromoters",
      "outputs": [
        {
          "name": "",
          "type": "uint256"
        }
      ],
      "payable": false,
      "stateMutability": "view",
      "type": "function"
    },
    {
      "constant": true,
      "inputs": [
        {
          "name": "_owner",
          "type": "address"
        }
      ],
      "name": "balanceOf",
      "outputs": [
        {
          "name": "balance",
          "type": "uint256"
        }
      ],
      "payable": false,
      "stateMutability": "view",
      "type": "function"
    },
    {
      "constant": true,
      "inputs": [],
      "name": "allocationAddressICO",
      "outputs": [
        {
          "name": "",
          "type": "address"
        }
      ],
      "payable": false,
      "stateMutability": "view",
      "type": "function"
    },
    {
      "constant": true,
      "inputs": [],
      "name": "minigSupply",
      "outputs": [
        {
          "name": "",
          "type": "uint256"
        }
      ],
      "payable": false,
      "stateMutability": "view",
      "type": "function"
    },
    {
      "constant": true,
      "inputs": [],
      "name": "allocationAddressReservedForPromoters",
      "outputs": [
        {
          "name": "",
          "type": "address"
        }
      ],
      "payable": false,
      "stateMutability": "view",
      "type": "function"
    },
    {
      "constant": true,
      "inputs": [],
      "name": "symbol",
      "outputs": [
        {
          "name": "",
          "type": "string"
        }
      ],
      "payable": false,
      "stateMutability": "view",
      "type": "function"
    },
    {
      "constant": false,
      "inputs": [
        {
          "name": "_to",
          "type": "address"
        },
        {
          "name": "_value",
          "type": "uint256"
        }
      ],
      "name": "transfer",
      "outputs": [
        {
          "name": "success",
          "type": "bool"
        }
      ],
      "payable": false,
      "stateMutability": "nonpayable",
      "type": "function"
    },
    {
      "constant": true,
      "inputs": [
        {
          "name": "_owner",
          "type": "address"
        },
        {
          "name": "_spender",
          "type": "address"
        }
      ],
      "name": "allowance",
      "outputs": [
        {
          "name": "remaining",
          "type": "uint256"
        }
      ],
      "payable": false,
      "stateMutability": "view",
      "type": "function"
    },
    {
      "inputs": [
        {
          "name": "founderAddress",
          "type": "address"
        }
      ],
      "payable": false,
      "stateMutability": "nonpayable",
      "type": "constructor"
    },
    {
      "anonymous": false,
      "inputs": [
        {
          "indexed": true,
          "name": "from",
          "type": "address"
        },
        {
          "indexed": true,
          "name": "to",
          "type": "address"
        },
        {
          "indexed": false,
          "name": "value",
          "type": "uint256"
        }
      ],
      "name": "Transfer",
      "type": "event"
    },
    {
      "anonymous": false,
      "inputs": [
        {
          "indexed": true,
          "name": "owner",
          "type": "address"
        },
        {
          "indexed": true,
          "name": "spender",
          "type": "address"
        },
        {
          "indexed": false,
          "name": "value",
          "type": "uint256"
        }
      ],
      "name": "Approval",
      "type": "event"
    },
    {
      "anonymous": false,
      "inputs": [
        {
          "indexed": true,
          "name": "to",
          "type": "address"
        },
        {
          "indexed": false,
          "name": "value",
          "type": "uint256"
        }
      ],
      "name": "Issuance",
      "type": "event"
    },
    {
      "constant": false,
      "inputs": [
        {
          "name": "_for",
          "type": "address"
        },
        {
          "name": "tokenCount",
          "type": "uint256"
        }
      ],
      "name": "issueTokens",
      "outputs": [
        {
          "name": "",
          "type": "bool"
        }
      ],
      "payable": true,
      "stateMutability": "payable",
      "type": "function"
    },
    {
      "constant": false,
      "inputs": [
        {
          "name": "newAddress",
          "type": "address"
        }
      ],
      "name": "changeMinter",
      "outputs": [
        {
          "name": "",
          "type": "bool"
        }
      ],
      "payable": false,
      "stateMutability": "nonpayable",
      "type": "function"
    },
    {
      "constant": false,
      "inputs": [
        {
          "name": "newAddress",
          "type": "address"
        }
      ],
      "name": "changeFounder",
      "outputs": [
        {
          "name": "",
          "type": "bool"
        }
      ],
      "payable": false,
      "stateMutability": "nonpayable",
      "type": "function"
    },
    {
      "constant": false,
      "inputs": [
        {
          "name": "newAddress",
          "type": "address"
        }
      ],
      "name": "changeMultisig",
      "outputs": [
        {
          "name": "",
          "type": "bool"
        }
      ],
      "payable": false,
      "stateMutability": "nonpayable",
      "type": "function"
    }
  ],
  "bytecode": "0x6060604052735b1a7d6712458798d48c581c07c30da8045255bb600460006101000a81548173ffffffffffffffffffffffffffffffffffffffff021916908373ffffffffffffffffffffffffffffffffffffffff160217905550735b1a7d6712458798d48c581c07c30da8045255bb600560006101000a81548173ffffffffffffffffffffffffffffffffffffffff021916908373ffffffffffffffffffffffffffffffffffffffff160217905550620000d66303c14dc06305f5e100620002c1640100000000026200163e176401000000009004565b6006553415620000e557600080fd5b60405160208062001a2a8339810160405280805190602001909190505080600460006101000a81548173ffffffffffffffffffffffffffffffffffffffff021916908373ffffffffffffffffffffffffffffffffffffffff160217905550600654600080600460009054906101000a900473ffffffffffffffffffffffffffffffffffffffff1673ffffffffffffffffffffffffffffffffffffffff1673ffffffffffffffffffffffffffffffffffffffff1681526020019081526020016000208190555062000217620001d56239ada06305f5e100620002c1640100000000026200163e176401000000009004565b620001fd63013d3af06305f5e100620002c1640100000000026200163e176401000000009004565b6200030c6401000000000262001671176401000000009004565b600281905550620002666002546200024c6301b096306305f5e100620002c1640100000000026200163e176401000000009004565b6200030c6401000000000262001671176401000000009004565b600281905550620002b46002546200029a6299cf006305f5e100620002c1640100000000026200163e176401000000009004565b6200030c6401000000000262001671176401000000009004565b6002819055505062000350565b6000808284029050620003026000851480620002e85750838583811515620002e557fe5b04145b62000340640100000000026200168f176401000000009004565b8091505092915050565b6000808284019050620003368482101562000340640100000000026200168f176401000000009004565b8091505092915050565b8015156200034d57600080fd5b50565b6116ca80620003606000396000f300606060405260043610610148576000357c0100000000000000000000000000000000000000000000000000000000900463ffffffff168062c5f5091461014d57806306fdde03146101765780630754617214610204578063095ea7b3146102595780630e0f1f00146102b357806315b73a1d1461030857806318160ddd146103315780632268a3581461035a57806323b872dd146103ab5780632ab4d052146104245780632c4d4d181461044d578063313ce5671461049e57806335fe8760146104cd578063475a9fa9146105225780634783c35b146105715780634d853ee5146105c657806353e1dfc21461061b57806370a08231146106445780638df41c32146106915780638ea85a80146106e6578063936aa1c11461070f57806393c32e061461076457806395d89b41146107b5578063a9059cbb14610843578063dd62ed3e1461089d575b600080fd5b341561015857600080fd5b610160610909565b6040518082815260200191505060405180910390f35b341561018157600080fd5b61018961091d565b6040518080602001828103825283818151815260200191508051906020019080838360005b838110156101c95780820151818401526020810190506101ae565b50505050905090810190601f1680156101f65780820380516001836020036101000a031916815260200191505b509250505060405180910390f35b341561020f57600080fd5b610217610956565b604051808273ffffffffffffffffffffffffffffffffffffffff1673ffffffffffffffffffffffffffffffffffffffff16815260200191505060405180910390f35b341561026457600080fd5b610299600480803573ffffffffffffffffffffffffffffffffffffffff1690602001909190803590602001909190505061097c565b604051808215151515815260200191505060405180910390f35b34156102be57600080fd5b6102c6610a6e565b604051808273ffffffffffffffffffffffffffffffffffffffff1673ffffffffffffffffffffffffffffffffffffffff16815260200191505060405180910390f35b341561031357600080fd5b61031b610a86565b6040518082815260200191505060405180910390f35b341561033c57600080fd5b610344610a9b565b6040518082815260200191505060405180910390f35b341561036557600080fd5b610391600480803573ffffffffffffffffffffffffffffffffffffffff16906020019091905050610aa1565b604051808215151515815260200191505060405180910390f35b34156103b657600080fd5b61040a600480803573ffffffffffffffffffffffffffffffffffffffff1690602001909190803573ffffffffffffffffffffffffffffffffffffffff16906020019091908035906020019091905050610b45565b604051808215151515815260200191505060405180910390f35b341561042f57600080fd5b610437610e3b565b6040518082815260200191505060405180910390f35b341561045857600080fd5b610484600480803573ffffffffffffffffffffffffffffffffffffffff16906020019091905050610e41565b604051808215151515815260200191505060405180910390f35b34156104a957600080fd5b6104b161106e565b604051808260ff1660ff16815260200191505060405180910390f35b34156104d857600080fd5b6104e0611073565b604051808273ffffffffffffffffffffffffffffffffffffffff1673ffffffffffffffffffffffffffffffffffffffff16815260200191505060405180910390f35b610557600480803573ffffffffffffffffffffffffffffffffffffffff1690602001909190803590602001909190505061108b565b604051808215151515815260200191505060405180910390f35b341561057c57600080fd5b61058461120a565b604051808273ffffffffffffffffffffffffffffffffffffffff1673ffffffffffffffffffffffffffffffffffffffff16815260200191505060405180910390f35b34156105d157600080fd5b6105d9611230565b604051808273ffffffffffffffffffffffffffffffffffffffff1673ffffffffffffffffffffffffffffffffffffffff16815260200191505060405180910390f35b341561062657600080fd5b61062e611256565b6040518082815260200191505060405180910390f35b341561064f57600080fd5b61067b600480803573ffffffffffffffffffffffffffffffffffffffff1690602001909190505061126a565b6040518082815260200191505060405180910390f35b341561069c57600080fd5b6106a46112b2565b604051808273ffffffffffffffffffffffffffffffffffffffff1673ffffffffffffffffffffffffffffffffffffffff16815260200191505060405180910390f35b34156106f157600080fd5b6106f96112ca565b6040518082815260200191505060405180910390f35b341561071a57600080fd5b6107226112df565b604051808273ffffffffffffffffffffffffffffffffffffffff1673ffffffffffffffffffffffffffffffffffffffff16815260200191505060405180910390f35b341561076f57600080fd5b61079b600480803573ffffffffffffffffffffffffffffffffffffffff169060200190919050506112f7565b604051808215151515815260200191505060405180910390f35b34156107c057600080fd5b6107c861139b565b6040518080602001828103825283818151815260200191508051906020019080838360005b838110156108085780820151818401526020810190506107ed565b50505050905090810190601f1680156108355780820380516001836020036101000a031916815260200191505b509250505060405180910390f35b341561084e57600080fd5b610883600480803573ffffffffffffffffffffffffffffffffffffffff169060200190919080359060200190919050506113d4565b604051808215151515815260200191505060405180910390f35b34156108a857600080fd5b6108f3600480803573ffffffffffffffffffffffffffffffffffffffff1690602001909190803573ffffffffffffffffffffffffffffffffffffffff169060200190919050506115b7565b6040518082815260200191505060405180910390f35b61091a6239ada06305f5e10061163e565b81565b6040805190810160405280600681526020017f5a616d706879000000000000000000000000000000000000000000000000000081525081565b600360009054906101000a900473ffffffffffffffffffffffffffffffffffffffff1681565b600081600160003373ffffffffffffffffffffffffffffffffffffffff1673ffffffffffffffffffffffffffffffffffffffff16815260200190815260200160002060008573ffffffffffffffffffffffffffffffffffffffff1673ffffffffffffffffffffffffffffffffffffffff168152602001908152602001600020819055508273ffffffffffffffffffffffffffffffffffffffff163373ffffffffffffffffffffffffffffffffffffffff167f8c5be1e5ebec7d5bd14f71427d1e84f3dd0314c0f7b2291e5b200ac8c7c3b925846040518082815260200191505060405180910390a36001905092915050565b735b1a7d6712458798d48c581c07c30da8045255bb81565b610a9863013d3af06305f5e10061163e565b81565b60025481565b6000600460009054906101000a900473ffffffffffffffffffffffffffffffffffffffff1673ffffffffffffffffffffffffffffffffffffffff163373ffffffffffffffffffffffffffffffffffffffff16141515610aff57600080fd5b81600560006101000a81548173ffffffffffffffffffffffffffffffffffffffff021916908373ffffffffffffffffffffffffffffffffffffffff160217905550919050565b6000816000808673ffffffffffffffffffffffffffffffffffffffff1673ffffffffffffffffffffffffffffffffffffffff1681526020019081526020016000205410158015610c11575081600160008673ffffffffffffffffffffffffffffffffffffffff1673ffffffffffffffffffffffffffffffffffffffff16815260200190815260200160002060003373ffffffffffffffffffffffffffffffffffffffff1673ffffffffffffffffffffffffffffffffffffffff1681526020019081526020016000205410155b8015610c9a57506000808473ffffffffffffffffffffffffffffffffffffffff1673ffffffffffffffffffffffffffffffffffffffff16815260200190815260200160002054826000808673ffffffffffffffffffffffffffffffffffffffff1673ffffffffffffffffffffffffffffffffffffffff1681526020019081526020016000205401115b15610e2f57816000808573ffffffffffffffffffffffffffffffffffffffff1673ffffffffffffffffffffffffffffffffffffffff16815260200190815260200160002060008282540192505081905550816000808673ffffffffffffffffffffffffffffffffffffffff1673ffffffffffffffffffffffffffffffffffffffff1681526020019081526020016000206000828254039250508190555081600160008673ffffffffffffffffffffffffffffffffffffffff1673ffffffffffffffffffffffffffffffffffffffff16815260200190815260200160002060003373ffffffffffffffffffffffffffffffffffffffff1673ffffffffffffffffffffffffffffffffffffffff168152602001908152602001600020600082825403925050819055508273ffffffffffffffffffffffffffffffffffffffff168473ffffffffffffffffffffffffffffffffffffffff167fddf252ad1be2c89b69c2b068fc378daa952ba7f163c4a11628f55a4df523b3ef846040518082815260200191505060405180910390a360019050610e34565b600090505b9392505050565b60065481565b6000600460009054906101000a900473ffffffffffffffffffffffffffffffffffffffff1673ffffffffffffffffffffffffffffffffffffffff163373ffffffffffffffffffffffffffffffffffffffff16141515610e9f57600080fd5b60016000735b1a7d6712458798d48c581c07c30da8045255bb73ffffffffffffffffffffffffffffffffffffffff1673ffffffffffffffffffffffffffffffffffffffff1681526020019081526020016000206000600360009054906101000a900473ffffffffffffffffffffffffffffffffffffffff1673ffffffffffffffffffffffffffffffffffffffff1673ffffffffffffffffffffffffffffffffffffffff1681526020019081526020016000206000905581600360006101000a81548173ffffffffffffffffffffffffffffffffffffffff021916908373ffffffffffffffffffffffffffffffffffffffff160217905550610fb3735b1a7d6712458798d48c581c07c30da8045255bb61126a565b60016000735b1a7d6712458798d48c581c07c30da8045255bb73ffffffffffffffffffffffffffffffffffffffff1673ffffffffffffffffffffffffffffffffffffffff1681526020019081526020016000206000600360009054906101000a900473ffffffffffffffffffffffffffffffffffffffff1673ffffffffffffffffffffffffffffffffffffffff1673ffffffffffffffffffffffffffffffffffffffff16815260200190815260200160002081905550919050565b600881565b735b1a7d6712458798d48c581c07c30da8045255bb81565b6000600360009054906101000a900473ffffffffffffffffffffffffffffffffffffffff1673ffffffffffffffffffffffffffffffffffffffff163373ffffffffffffffffffffffffffffffffffffffff161415156110e957600080fd5b60008214156110fb5760009050611204565b60065461110a60025484611671565b111561111557600080fd5b61112160025483611671565b60028190555061116f6000808573ffffffffffffffffffffffffffffffffffffffff1673ffffffffffffffffffffffffffffffffffffffff1681526020019081526020016000205483611671565b6000808573ffffffffffffffffffffffffffffffffffffffff1673ffffffffffffffffffffffffffffffffffffffff168152602001908152602001600020819055508273ffffffffffffffffffffffffffffffffffffffff167f9cb9c14f7bc76e3a89b796b091850526236115352a198b1e472f00e91376bbcb836040518082815260200191505060405180910390a2600190505b92915050565b600560009054906101000a900473ffffffffffffffffffffffffffffffffffffffff1681565b600460009054906101000a900473ffffffffffffffffffffffffffffffffffffffff1681565b6112676299cf006305f5e10061163e565b81565b60008060008373ffffffffffffffffffffffffffffffffffffffff1673ffffffffffffffffffffffffffffffffffffffff168152602001908152602001600020549050919050565b735b1a7d6712458798d48c581c07c30da8045255bb81565b6112dc6301b096306305f5e10061163e565b81565b735b1a7d6712458798d48c581c07c30da8045255bb81565b6000600460009054906101000a900473ffffffffffffffffffffffffffffffffffffffff1673ffffffffffffffffffffffffffffffffffffffff163373ffffffffffffffffffffffffffffffffffffffff1614151561135557600080fd5b81600460006101000a81548173ffffffffffffffffffffffffffffffffffffffff021916908373ffffffffffffffffffffffffffffffffffffffff160217905550919050565b6040805190810160405280600381526020017f5a414d000000000000000000000000000000000000000000000000000000000081525081565b6000816000803373ffffffffffffffffffffffffffffffffffffffff1673ffffffffffffffffffffffffffffffffffffffff16815260200190815260200160002054101580156114a157506000808473ffffffffffffffffffffffffffffffffffffffff1673ffffffffffffffffffffffffffffffffffffffff16815260200190815260200160002054826000808673ffffffffffffffffffffffffffffffffffffffff1673ffffffffffffffffffffffffffffffffffffffff1681526020019081526020016000205401115b156115ac57816000803373ffffffffffffffffffffffffffffffffffffffff1673ffffffffffffffffffffffffffffffffffffffff16815260200190815260200160002060008282540392505081905550816000808573ffffffffffffffffffffffffffffffffffffffff1673ffffffffffffffffffffffffffffffffffffffff168152602001908152602001600020600082825401925050819055508273ffffffffffffffffffffffffffffffffffffffff163373ffffffffffffffffffffffffffffffffffffffff167fddf252ad1be2c89b69c2b068fc378daa952ba7f163c4a11628f55a4df523b3ef846040518082815260200191505060405180910390a3600190506115b1565b600090505b92915050565b6000600160008473ffffffffffffffffffffffffffffffffffffffff1673ffffffffffffffffffffffffffffffffffffffff16815260200190815260200160002060008373ffffffffffffffffffffffffffffffffffffffff1673ffffffffffffffffffffffffffffffffffffffff16815260200190815260200160002054905092915050565b60008082840290506116676000851480611662575083858381151561165f57fe5b04145b61168f565b8091505092915050565b60008082840190506116858482101561168f565b8091505092915050565b80151561169b57600080fd5b505600a165627a7a7230582029b2532e129ab3c2b5a1eef57b89c9db1ebf1000a82bcc22b02157a1f0dc39ff0029",
  "source": "pragma solidity ^0.4.18;\n//0xA5B04Cbff6C4F69Ae34ee2B94385771a9905Bc59\nimport \"./StandardToken.sol\";\nimport \"./SafeMath.sol\";\n\ncontract ZamphyToken is StandardToken, SafeMath {\n\n    /*\n     * External contracts\n     */\n    address public minter;\n\n    /*\n     * Token meta data\n     */\n    string constant public name = \"Zamphy\";\n    string constant public symbol = \"ZAM\";\n    uint8 constant public decimals = 8;\n\n    // Address of the founder of Zamphy.\n    address public founder = 0x5b1a7d6712458798d48c581C07c30Da8045255Bb;\n\n    // Multisig address of the founders\n    address public multisig = 0x5b1a7d6712458798d48c581C07c30Da8045255Bb;\n\n    // Address where all tokens created during ICO stage initially allocated\n    address constant public allocationAddressICO = 0x5b1a7d6712458798d48c581C07c30Da8045255Bb;\n\n    // Address where all tokens created during preICO stage initially allocated\n    address constant public allocationAddressPreICO = 0x5b1a7d6712458798d48c581C07c30Da8045255Bb;\n\n    address constant public allocationAddressMinigSupply = 0x5b1a7d6712458798d48c581C07c30Da8045255Bb;\n\n    address constant public allocationAddressReservedForPromoters = 0x5b1a7d6712458798d48c581C07c30Da8045255Bb;\n\n    // 3780000 tokens during preICO  6%\n    uint constant public preICOSupply = mul(3780000, 100000000);\n\n    // 20790000 tokens during ICO   33%\n    uint constant public ICOSupply = mul(20790000, 100000000);\n\n    /// tokens during mining  45%\n    uint constant public minigSupply = mul(28350000,100000000);\n\n    //tokens reservedForPromoters 16%\n    uint constant public reservedForPromoters = mul(10080000,100000000);\n\n    // Max number of tokens that can be minted\n    uint public maxTotalSupply = mul(63000000,100000000);\n\n    /*\n     * Modifiers\n     */\n    modifier onlyFounder() {\n        // Only founder is allowed to do this action.\n        if (msg.sender != founder) {\n            throw;\n        }\n        _;\n    }\n\n    modifier onlyMinter() {\n        // Only minter is allowed to proceed.\n        if (msg.sender != minter) {\n            throw;\n        }\n        _;\n    }\n\n    /*\n     * Contract functions\n     */\n\n    /// @dev Crowdfunding contract issues new tokens for address. Returns success.\n    /// @param _for Address of receiver.\n    /// @param tokenCount Number of tokens to issue.\n    function issueTokens(address _for, uint tokenCount)\n        external\n        payable\n        onlyMinter\n        returns (bool)\n    {\n        if (tokenCount == 0) {\n            return false;\n        }\n\n        if (add(totalSupply, tokenCount) > maxTotalSupply) {\n            throw;\n        }\n\n        totalSupply = add(totalSupply, tokenCount);\n        balances[_for] = add(balances[_for], tokenCount);\n        Issuance(_for, tokenCount);\n        return true;\n    }\n\n    /// @dev Function to change address that is allowed to do emission.\n    /// @param newAddress Address of new emission contract.\n    function changeMinter(address newAddress)\n        public\n        onlyFounder\n        returns (bool)\n    {   \n        // Forbid previous emission contract to distribute tokens minted during ICO stage\n        delete allowed[allocationAddressICO][minter];\n\n        minter = newAddress;\n\n        // Allow emission contract to distribute tokens minted during ICO stage\n        allowed[allocationAddressICO][minter] = balanceOf(allocationAddressICO);\n    }\n\n    /// @dev Function to change founder address.\n    /// @param newAddress Address of new founder.\n    function changeFounder(address newAddress)\n        public\n        onlyFounder\n        returns (bool)\n    {   \n        founder = newAddress;\n    }\n\n    /// @dev Function to change multisig address.\n    /// @param newAddress Address of new multisig.\n    function changeMultisig(address newAddress)\n        public\n        onlyFounder\n        returns (bool)\n    {\n        multisig = newAddress;\n    }\n\n    /// @dev Contract constructor function sets initial token balances.\n    function ZamphyToken(address founderAddress)\n    {   \n        // Set founder address\n        founder = founderAddress;\n\n        // Allocate all created tokens during ICO stage to allocationAddressICO.\n        // balances[allocationAddressICO] = ICOSupply;\n\n        // Allocate all created tokens during preICO stage to allocationAddressPreICO.\n        // balances[allocationAddressPreICO] = preICOSupply;\n\n        //allocate total supply during mining\n        // balances[allocationAddressMinigSupply] = minigSupply;\n\n        //allocate total supply which is reservedForPromoters\n        balances[founder] = maxTotalSupply;\n\n        // Allow founder to distribute tokens during preICO stage\n        // allowed[allocationAddressPreICO][founder] = preICOSupply;\n\n        // Give 14 percent of all tokens to founders.\n        // balances[multisig] = div(mul(ICOSupply, 14), 86);\n\n        // Set correct totalSupply and limit maximum total supply.\n        totalSupply = add(preICOSupply, ICOSupply);\n        totalSupply = add(totalSupply, minigSupply);\n        totalSupply = add(totalSupply, reservedForPromoters);\n    }\n}\n",
  "sourcePath": "/var/www/html/zamphy-ico-humaniq/contracts/ZamphyToken.sol",
  "compiler": {
    "name": "solc",
    "version": "0.4.19+commit.c4cbbb05.Emscripten.clang"
  },
  "schemaVersion": "1.0.1",
  "updatedAt": "2018-02-26T12:59:37.724Z"
}