{
  "contractName": "ZamphyICO",
  "abi": [
    {
      "constant": true,
      "inputs": [],
      "name": "startDate",
      "outputs": [
        {
          "name": "",
          "type": "uint256"
        }
      ],
      "payable": false,
      "stateMutability": "view",
      "type": "function"
    },
    {
      "constant": true,
      "inputs": [],
      "name": "tokensDistributed",
      "outputs": [
        {
          "name": "",
          "type": "uint256"
        }
      ],
      "payable": false,
      "stateMutability": "view",
      "type": "function"
    },
    {
      "constant": true,
      "inputs": [],
      "name": "baseTokenPrice",
      "outputs": [
        {
          "name": "",
          "type": "uint256"
        }
      ],
      "payable": false,
      "stateMutability": "view",
      "type": "function"
    },
    {
      "constant": true,
      "inputs": [],
      "name": "zamphyToken",
      "outputs": [
        {
          "name": "",
          "type": "address"
        }
      ],
      "payable": false,
      "stateMutability": "view",
      "type": "function"
    },
    {
      "constant": true,
      "inputs": [],
      "name": "ICOFounder",
      "outputs": [
        {
          "name": "",
          "type": "address"
        }
      ],
      "payable": false,
      "stateMutability": "view",
      "type": "function"
    },
    {
      "constant": true,
      "inputs": [],
      "name": "founder",
      "outputs": [
        {
          "name": "",
          "type": "address"
        }
      ],
      "payable": false,
      "stateMutability": "view",
      "type": "function"
    },
    {
      "constant": true,
      "inputs": [],
      "name": "endDate",
      "outputs": [
        {
          "name": "",
          "type": "uint256"
        }
      ],
      "payable": false,
      "stateMutability": "view",
      "type": "function"
    },
    {
      "inputs": [
        {
          "name": "tokenAddress",
          "type": "address"
        },
        {
          "name": "founderAddress",
          "type": "address"
        }
      ],
      "payable": false,
      "stateMutability": "nonpayable",
      "type": "constructor"
    },
    {
      "payable": true,
      "stateMutability": "payable",
      "type": "fallback"
    },
    {
      "constant": true,
      "inputs": [],
      "name": "getCurrentBonus",
      "outputs": [
        {
          "name": "",
          "type": "uint256"
        }
      ],
      "payable": false,
      "stateMutability": "view",
      "type": "function"
    },
    {
      "constant": true,
      "inputs": [
        {
          "name": "timestamp",
          "type": "uint256"
        }
      ],
      "name": "getBonus",
      "outputs": [
        {
          "name": "",
          "type": "uint256"
        }
      ],
      "payable": false,
      "stateMutability": "view",
      "type": "function"
    },
    {
      "constant": true,
      "inputs": [
        {
          "name": "investment",
          "type": "uint256"
        },
        {
          "name": "timestamp",
          "type": "uint256"
        }
      ],
      "name": "calculateTokens",
      "outputs": [
        {
          "name": "",
          "type": "uint256"
        }
      ],
      "payable": false,
      "stateMutability": "view",
      "type": "function"
    },
    {
      "constant": false,
      "inputs": [
        {
          "name": "beneficiary",
          "type": "address"
        },
        {
          "name": "investment",
          "type": "uint256"
        },
        {
          "name": "timestamp",
          "type": "uint256"
        }
      ],
      "name": "fixInvestment",
      "outputs": [
        {
          "name": "",
          "type": "uint256"
        }
      ],
      "payable": false,
      "stateMutability": "nonpayable",
      "type": "function"
    }
  ],
  "bytecode": "0x6060604052735b1a7d6712458798d48c581c07c30da8045255bb600160006101000a81548173ffffffffffffffffffffffffffffffffffffffff021916908373ffffffffffffffffffffffffffffffffffffffff160217905550730f6eb89b6665bc857e79c8f79af2f3c9d5adb4ee600260006101000a81548173ffffffffffffffffffffffffffffffffffffffff021916908373ffffffffffffffffffffffffffffffffffffffff160217905550635a725881600355635ab9897f60045562989680600555600060065534156100d557600080fd5b60405160408061086c83398101604052808051906020019091908051906020019091905050816000806101000a81548173ffffffffffffffffffffffffffffffffffffffff021916908373ffffffffffffffffffffffffffffffffffffffff16021790555080600160006101000a81548173ffffffffffffffffffffffffffffffffffffffff021916908373ffffffffffffffffffffffffffffffffffffffff16021790555050506106e08061018c6000396000f3006060604052600436106100af576000357c0100000000000000000000000000000000000000000000000000000000900463ffffffff1680630b97bc86146100b4578063152e84a7146100dd5780631da93873146101065780631f88bf8a1461012f57806343bb6e0d146101845780634aa66b28146101d95780634d853ee51461021057806357e5eea5146102655780638f1224ce1461028e578063903cc583146102ed578063c24a0f8b1461032d575b600080fd5b34156100bf57600080fd5b6100c7610356565b6040518082815260200191505060405180910390f35b34156100e857600080fd5b6100f061035c565b6040518082815260200191505060405180910390f35b341561011157600080fd5b610119610362565b6040518082815260200191505060405180910390f35b341561013a57600080fd5b610142610368565b604051808273ffffffffffffffffffffffffffffffffffffffff1673ffffffffffffffffffffffffffffffffffffffff16815260200191505060405180910390f35b341561018f57600080fd5b61019761038d565b604051808273ffffffffffffffffffffffffffffffffffffffff1673ffffffffffffffffffffffffffffffffffffffff16815260200191505060405180910390f35b34156101e457600080fd5b6101fa60048080359060200190919050506103b3565b6040518082815260200191505060405180910390f35b341561021b57600080fd5b6102236103bf565b604051808273ffffffffffffffffffffffffffffffffffffffff1673ffffffffffffffffffffffffffffffffffffffff16815260200191505060405180910390f35b341561027057600080fd5b6102786103e5565b6040518082815260200191505060405180910390f35b341561029957600080fd5b6102d7600480803573ffffffffffffffffffffffffffffffffffffffff169060200190919080359060200190919080359060200190919050506103f5565b6040518082815260200191505060405180910390f35b34156102f857600080fd5b61031760048080359060200190919080359060200190919050506105d6565b6040518082815260200191505060405180910390f35b341561033857600080fd5b61034061060d565b6040518082815260200191505060405180910390f35b60035481565b60065481565b60055481565b6000809054906101000a900473ffffffffffffffffffffffffffffffffffffffff1681565b600260009054906101000a900473ffffffffffffffffffffffffffffffffffffffff1681565b60006103e89050919050565b600160009054906101000a900473ffffffffffffffffffffffffffffffffffffffff1681565b60006103f0426103b3565b905090565b600080600160009054906101000a900473ffffffffffffffffffffffffffffffffffffffff1673ffffffffffffffffffffffffffffffffffffffff163373ffffffffffffffffffffffffffffffffffffffff1614151561045457600080fd5b8360055481101561046457600080fd5b61046e85856105d6565b915061047c60065483610613565b6006819055506000809054906101000a900473ffffffffffffffffffffffffffffffffffffffff1673ffffffffffffffffffffffffffffffffffffffff166323b872dd600260009054906101000a900473ffffffffffffffffffffffffffffffffffffffff1688856000604051602001526040518463ffffffff167c0100000000000000000000000000000000000000000000000000000000028152600401808473ffffffffffffffffffffffffffffffffffffffff1673ffffffffffffffffffffffffffffffffffffffff1681526020018373ffffffffffffffffffffffffffffffffffffffff1673ffffffffffffffffffffffffffffffffffffffff1681526020018281526020019350505050602060405180830381600087803b15156105a457600080fd5b6102c65a03f115156105b557600080fd5b5050506040518051905015156105ca57600080fd5b81925050509392505050565b6000806105f86105ea6005546103e8610631565b6105f3856103b3565b610664565b90506106048482610664565b91505092915050565b60045481565b6000808284019050610627848210156106a5565b8091505092915050565b600080828402905061065a6000851480610655575083858381151561065257fe5b04145b6106a5565b8091505092915050565b600080610673600084116106a5565b828481151561067e57fe5b04905061069b838581151561068f57fe5b068285020185146106a5565b8091505092915050565b8015156106b157600080fd5b505600a165627a7a72305820bc6eb6d625c95a7fca08b2d6fe5240a93fe6e48b515867ef4146c6de1d38b3d80029",
  "source": "pragma solidity ^0.4.18;\n//0x59964B11Fe30497b78C0b280Ef6b5efEB35BEe65\nimport \"./ZamphyToken.sol\";\nimport \"./SafeMath.sol\";\n\ncontract ZamphyICO is SafeMath {\n\n    /*\n     * External contracts\n     */\n    ZamphyToken public zamphyToken;\n\n    // Address of the founder of Zamphy.\n    address public founder = 0x5b1a7d6712458798d48c581C07c30Da8045255Bb;\n\n    // Address where all tokens created during ICO stage initially allocated\n    address public ICOFounder = 0x0F6eB89b6665bC857E79c8F79af2f3C9D5Adb4eE;\n\n    // Start date of the ICO\n    uint public startDate = 1517443201;  // 2018-02-01 00:00:01 UTC\n\n    // End date of the ICO\n    uint public endDate = 1522108799;  // 2018-03-27 23:59:50 UTC\n\n    // Token price without discount during the ICO stage\n    uint public baseTokenPrice = 10000000; // 0.001 ETH, considering 8 decimal places\n\n    // Number of tokens distributed to investors\n    uint public tokensDistributed = 0;\n\n    /*\n     *  Modifiers\n     */\n    modifier onlyFounder() {\n        // Only founder is allowed to do this action.\n        if (msg.sender != founder) {\n            throw;\n        }\n        _;\n    }\n\n    modifier minInvestment(uint investment) {\n        // User has to send at least the ether value of one token.\n    if (investment < baseTokenPrice) {\n            throw;\n        }\n        _;\n    }\n\n    /// @dev Returns current bonus\n    function getCurrentBonus()\n        public\n        constant\n        returns (uint)\n    {\n        return getBonus(now);\n    }\n\n    /// @dev Returns bonus for the specific moment\n    /// @param timestamp Time of investment (in seconds)\n    function getBonus(uint timestamp)\n        public\n        constant\n        returns (uint)\n    {   \n        return 1000; // 0%\n        // if (timestamp > endDate) {\n        //     throw;\n        // }\n\n        // if (startDate > timestamp) {\n        //     return 1499;  // 49.9%\n        // }\n\n        // uint icoDuration = timestamp - startDate;\n        // if (icoDuration >= 16 days) {\n        //     return 1000;  // 0%\n        // } else if (icoDuration >= 9 days) {\n        //     return 1125;  // 12.5%\n        // } else if (icoDuration >= 2 days) {\n        //     return 1250;  // 25%\n        // } else {\n        //     return 1499;  // 49.9%\n        // }\n    }\n\n    function calculateTokens(uint investment, uint timestamp)\n        public\n        constant\n        returns (uint)\n    {\n        // calculate discountedPrice\n        uint discountedPrice = div(mul(baseTokenPrice, 1000), getBonus(timestamp));\n\n        // Token count is rounded down. Sent ETH should be multiples of baseTokenPrice.\n        return div(investment, discountedPrice);\n    }\n\n\n    /// @dev Issues tokens for users who made BTC purchases.\n    /// @param beneficiary Address the tokens will be issued to.\n    /// @param investment Invested amount in Wei\n    /// @param timestamp Time of investment (in seconds)\n    function fixInvestment(address beneficiary, uint investment, uint timestamp)\n        external\n        onlyFounder\n        minInvestment(investment)\n        returns (uint)\n    {   \n\n        // Calculate number of tokens to mint\n        uint tokenCount = calculateTokens(investment, timestamp);\n\n        // Update fund's and user's balance and total supply of tokens.\n        tokensDistributed = add(tokensDistributed, tokenCount);\n\n        // Distribute tokens.\n        if (!zamphyToken.transferFrom(ICOFounder, beneficiary, tokenCount)) {\n            // Tokens could not be issued.\n            throw;\n        }\n\n        return tokenCount;\n    }\n\n    /// @dev Contract constructor\n    function ZamphyICO(address tokenAddress, address founderAddress) {\n        // Set token address\n        zamphyToken = ZamphyToken(tokenAddress);\n\n        // Set founder address\n        founder = founderAddress;\n    }\n\n    /// @dev Fallback function\n    function () payable {\n        throw;\n    }\n}\n",
  "sourcePath": "/var/www/html/zamphy-ico-humaniq/contracts/ZamphyICO.sol",
  "compiler": {
    "name": "solc",
    "version": "0.4.19+commit.c4cbbb05.Emscripten.clang"
  },
  "schemaVersion": "1.0.1",
  "updatedAt": "2018-02-26T12:59:37.721Z"
}